{
  "contractName": "Election",
  "abi": [
    {
      "constant": true,
      "inputs": [],
      "name": "candidatesCount",
      "outputs": [
        {
          "name": "",
          "type": "uint256"
        }
      ],
      "payable": false,
      "stateMutability": "view",
      "type": "function"
    },
    {
      "constant": true,
      "inputs": [
        {
          "name": "",
          "type": "uint256"
        }
      ],
      "name": "candidates",
      "outputs": [
        {
          "name": "id",
          "type": "uint256"
        },
        {
          "name": "name",
          "type": "string"
        },
        {
          "name": "provinceId",
          "type": "uint256"
        },
        {
          "name": "voteCount",
          "type": "uint256"
        },
        {
          "name": "partyId",
          "type": "uint256"
        }
      ],
      "payable": false,
      "stateMutability": "view",
      "type": "function"
    },
    {
      "constant": true,
      "inputs": [
        {
          "name": "",
          "type": "uint256"
        }
      ],
      "name": "parties",
      "outputs": [
        {
          "name": "id",
          "type": "uint256"
        },
        {
          "name": "name",
          "type": "string"
        },
        {
          "name": "voteCount",
          "type": "uint256"
        }
      ],
      "payable": false,
      "stateMutability": "view",
      "type": "function"
    },
    {
      "constant": true,
      "inputs": [
        {
          "name": "",
          "type": "address"
        }
      ],
      "name": "voters",
      "outputs": [
        {
          "name": "",
          "type": "bool"
        }
      ],
      "payable": false,
      "stateMutability": "view",
      "type": "function"
    },
    {
      "constant": true,
      "inputs": [],
      "name": "partiesCount",
      "outputs": [
        {
          "name": "",
          "type": "uint256"
        }
      ],
      "payable": false,
      "stateMutability": "view",
      "type": "function"
    },
    {
      "inputs": [],
      "payable": false,
      "stateMutability": "nonpayable",
      "type": "constructor"
    },
    {
      "anonymous": false,
      "inputs": [
        {
          "indexed": true,
          "name": "_candidateId",
          "type": "uint256"
        },
        {
          "indexed": true,
          "name": "_partyId",
          "type": "uint256"
        }
      ],
      "name": "votedEvent",
      "type": "event"
    },
    {
      "anonymous": false,
      "inputs": [
        {
          "indexed": false,
          "name": "id",
          "type": "uint256"
        },
        {
          "indexed": false,
          "name": "name",
          "type": "string"
        },
        {
          "indexed": false,
          "name": "voteCount",
          "type": "uint256"
        }
      ],
      "name": "eventAddedParty",
      "type": "event"
    },
    {
      "constant": false,
      "inputs": [
        {
          "name": "_candidateId",
          "type": "uint256"
        },
        {
          "name": "_provinceId",
          "type": "uint256"
        },
        {
          "name": "_partyId",
          "type": "uint256"
        }
      ],
      "name": "vote",
      "outputs": [],
      "payable": false,
      "stateMutability": "nonpayable",
      "type": "function"
    }
  ],
  "bytecode": "0x608060405234801561001057600080fd5b5061005e6040805190810160405280600381526020017f4344550000000000000000000000000000000000000000000000000000000000815250610290640100000000026401000000009004565b6100ab6040805190810160405280600381526020017f5350440000000000000000000000000000000000000000000000000000000000815250610290640100000000026401000000009004565b6100f86040805190810160405280600381526020017f4644500000000000000000000000000000000000000000000000000000000000815250610290640100000000026401000000009004565b6101486040805190810160405280600981526020017f506574657220466f7800000000000000000000000000000000000000000000008152506001806103bc640100000000026401000000009004565b6101996040805190810160405280600b81526020017f4b68616e2048756d626c65000000000000000000000000000000000000000000815250600160026103bc640100000000026401000000009004565b6101ea6040805190810160405280600c81526020017f4672656420466573736c65720000000000000000000000000000000000000000815250600260016103bc640100000000026401000000009004565b61023a6040805190810160405280600a81526020017f4469636b20536d697468000000000000000000000000000000000000000000008152506002806103bc640100000000026401000000009004565b61028b6040805190810160405280600c81526020017f4e61706f6c2048616d6d65720000000000000000000000000000000000000000815250600260036103bc640100000000026401000000009004565b610500565b600460008154809291906001019190505550606060405190810160405280600454815260200182815260200160008152506002600060045481526020019081526020016000206000820151816000015560208201518160010190805190602001906102fc92919061045b565b50604082015181600201559050507f2e5041f61c51095324018d39e26ce22db26959b591f8fd4529e5fa816a1fab0b6004548260006040518084815260200180602001838152602001828103825284818151815260200191508051906020019080838360005b8381101561037d578082015181840152602081019050610362565b50505050905090810190601f1680156103aa5780820380516001836020036101000a031916815260200191505b5094505050505060405180910390a150565b60036000815480929190600101919050555060a0604051908101604052806003548152602001848152602001838152602001600081526020018281525060016000600354815260200190815260200160002060008201518160000155602082015181600101908051906020019061043492919061045b565b50604082015181600201556060820151816003015560808201518160040155905050505050565b828054600181600116156101000203166002900490600052602060002090601f016020900481019282601f1061049c57805160ff19168380011785556104ca565b828001600101855582156104ca579182015b828111156104c95782518255916020019190600101906104ae565b5b5090506104d791906104db565b5090565b6104fd91905b808211156104f95760008160009055506001016104e1565b5090565b90565b6106168061050f6000396000f300608060405260043610610078576000357c0100000000000000000000000000000000000000000000000000000000900463ffffffff1680632d35a8a21461007d5780633477ee2e146100a857806370651a181461016a5780638a6655d61461021e578063a3ec138d1461025f578063c56a3540146102ba575b600080fd5b34801561008957600080fd5b506100926102e5565b6040518082815260200191505060405180910390f35b3480156100b457600080fd5b506100d3600480360381019080803590602001909291905050506102eb565b6040518086815260200180602001858152602001848152602001838152602001828103825286818151815260200191508051906020019080838360005b8381101561012b578082015181840152602081019050610110565b50505050905090810190601f1680156101585780820380516001836020036101000a031916815260200191505b50965050505050505060405180910390f35b34801561017657600080fd5b50610195600480360381019080803590602001909291905050506103b9565b6040518084815260200180602001838152602001828103825284818151815260200191508051906020019080838360005b838110156101e15780820151818401526020810190506101c6565b50505050905090810190601f16801561020e5780820380516001836020036101000a031916815260200191505b5094505050505060405180910390f35b34801561022a57600080fd5b5061025d60048036038101908080359060200190929190803590602001909291908035906020019092919050505061047b565b005b34801561026b57600080fd5b506102a0600480360381019080803573ffffffffffffffffffffffffffffffffffffffff1690602001909291905050506105c4565b604051808215151515815260200191505060405180910390f35b3480156102c657600080fd5b506102cf6105e4565b6040518082815260200191505060405180910390f35b60035481565b6001602052806000526040600020600091509050806000015490806001018054600181600116156101000203166002900480601f01602080910402602001604051908101604052809291908181526020018280546001816001161561010002031660029004801561039d5780601f106103725761010080835404028352916020019161039d565b820191906000526020600020905b81548152906001019060200180831161038057829003601f168201915b5050505050908060020154908060030154908060040154905085565b6002602052806000526040600020600091509050806000015490806001018054600181600116156101000203166002900480601f01602080910402602001604051908101604052809291908181526020018280546001816001161561010002031660029004801561046b5780601f106104405761010080835404028352916020019161046b565b820191906000526020600020905b81548152906001019060200180831161044e57829003601f168201915b5050505050908060020154905083565b6000803373ffffffffffffffffffffffffffffffffffffffff1673ffffffffffffffffffffffffffffffffffffffff16815260200190815260200160002060009054906101000a900460ff161515156104d357600080fd5b6001600084815260200190815260200160002060020154821415156104f757600080fd5b60008311801561050957506003548311155b151561051457600080fd5b60008060003373ffffffffffffffffffffffffffffffffffffffff1673ffffffffffffffffffffffffffffffffffffffff16815260200190815260200160002060006101000a81548160ff021916908315150217905550600160008481526020019081526020016000206003016000815480929190600101919050555080837fb7e338857470376b2fa57b9b2cbf51a8724d543a80bf4fb392a2aa9dad1118a260405160405180910390a3505050565b60006020528060005260406000206000915054906101000a900460ff1681565b600454815600a165627a7a723058200cd26eb01dbfcfb4ee85c4fd38d627e9624eafd0e78971aedd65530fab1743a40029",
  "source": "pragma solidity ^0.4.2;\r\n\r\ncontract Election {\r\n    // Model a Candidate\r\n    struct Candidate {\r\n        uint id;\r\n        string name;\r\n        uint provinceId;\r\n        uint voteCount;\r\n        uint partyId;\r\n    }\r\n    // Model a Party \r\n    struct Party {\r\n        uint id;\r\n        string name;\r\n        uint voteCount;\r\n    }\r\n\r\n     struct Province {\r\n        uint id;\r\n        string tokens;\r\n    }\r\n\r\n    // Store accounts that have voted\r\n    mapping(address => bool) public voters;\r\n    // Store Candidates\r\n    // Fetch Candidate\r\n    mapping(uint => Candidate) public candidates;    \r\n    mapping(uint => Party) public parties;\r\n    // Store Candidates Count\r\n    uint public candidatesCount;\r\n    uint public partiesCount; \r\n\r\n    // voted event\r\n    event votedEvent (\r\n        uint indexed _candidateId,     \r\n        uint indexed _partyId   \r\n    );\r\n\r\n    event eventAddedParty (\r\n        uint id,\r\n        string name,\r\n        uint voteCount\r\n    );\r\n\r\n    function Election () public {\r\n\r\n         //Initialize Parties\r\n        addParty(\"CDU\");\r\n        addParty(\"SPD\");\r\n        addParty(\"FDP\");\r\n\r\n        addCandidate(\"Peter Fox\", 1, 1);\r\n        addCandidate(\"Khan Humble\", 1, 2);\r\n        addCandidate(\"Fred Fessler\", 2,1);\r\n        addCandidate(\"Dick Smith\", 2, 2);\r\n        addCandidate(\"Napol Hammer\", 2, 3);  \r\n\r\n    }\r\n\r\n    function addCandidate (string _name, uint _provinceId, uint _partyOfCandidate) private {\r\n        candidatesCount ++;\r\n        candidates[candidatesCount] = Candidate(candidatesCount, _name, _provinceId,  0, _partyOfCandidate);\r\n    }\r\n\r\n     function addParty (string _name) private {\r\n         partiesCount++;\r\n         parties[partiesCount] = Party(partiesCount, _name, 0); \r\n         eventAddedParty(partiesCount, _name, 0);\r\n     }\r\n       \r\n    function vote(uint _candidateId, uint _provinceId, uint _partyId) public {\r\n\r\n        // require that they haven't voted before\r\n        require(!voters[msg.sender]);\r\n        require(_provinceId == candidates[_candidateId].provinceId);\r\n        // require a valid candidate\r\n        require(_candidateId > 0 && _candidateId <= candidatesCount);\r\n       \r\n        // record that voter has voted , DEFAULT = TRUE (means sender can only vote once)\r\n        voters[msg.sender] = false;\r\n\r\n        // update candidate vote Count\r\n        candidates[_candidateId].voteCount ++;\r\n\r\n        // trigger voted event\r\n        votedEvent(_candidateId, _partyId);\r\n    }\r\n}\r\n",
  "sourcePath": "C:\\Users\\Dominic\\Desktop\\Gruppe_Election\\ElectionDAPP\\contracts\\Election.sol",
  "compiler": {
    "name": "solc",
    "version": "0.4.24+commit.e67f0147.Emscripten.clang"
  },
  "schemaVersion": "2.0.1",
  "updatedAt": "2018-12-19T06:31:50.118Z"
}